:020000040800F2
:100000006899002059020008610200086302000894
:10001000650200086702000869020008000000008D
:10002000000000000000000000000000A101000826
:100030006D02000800000000F5010008DD26000840
:1000400073020008730200087302000873020008BC
:100050007302000873020008351C000873020008D0
:10006000730200087302000873020008730200089C
:10007000730200087302000873020008730200088C
:10008000730200087302000873020008730200087C
:100090009914000873020008730200087302000834
:1000A000730200087302000873020008730200085C
:1000B000730200087302000873020008730200084C
:1000C000730200087302000873020008730200083C
:1000D000730200084D27000873020008730200082D
:1000E0008D1C0008730200087302000873020008E8
:1000F000730200087302000873020008730200080C
:1001000073020008730200087302000873020008FB
:1001100073020008730200087302000873020008EB
:1001200073020008730200087302000873020008DB
:1001300073020008730200087302000873020008CB
:1001400073020008730200087302000873020008BB
:1001500073020008730200087302000873020008AB
:10016000730200087302000873020008730200089B
:10017000730200087302000873020008730200088B
:100180007302000873020008DFF810D000F0A8FC2A
:1001900000480047F5330008AFF30080689900205D
:1001A0002A4B19680868B0E8F04F80F30988BFF35C
:1001B0006F8F4FF0000080F311887047000000003F
:1001C00006480068006880F3088862B661B6BFF32D
:1001D0004F8FBFF36F8F00DF00BF00BF08ED00E05F
:1001E000DFF80C00016841F470010160704700BF46
:1001F00088ED00E0EFF30980BFF36F8F134B1A68AF
:100200001EF0100F08BF20ED108A20E9F04F10609B
:1002100008B44FF0500080F31188BFF34F8FBFF345
:100220006F8F04F029FB4FF0000080F3118808BCA9
:1002300019680868B0E8F04F1EF0100F08BFB0EC66
:10024000108A80F30988BFF36F8F70476800002021
:10025000EFF30580704700000648804706480047D6
:10026000FEE7FEE7FEE7FEE7FEE7FEE7FEE7FEE766
:10027000FEE7FEE7F12600088901000840EA0103D5
:100280009B0703D009E008C9121F08C0042AFAD24C
:1002900003E011F8013B00F8013B521EF9D2704710
:1002A000D2B201E000F8012B491EFBD270470022B8
:1002B000F6E710B513460A4604461946FFF7F0FF65
:1002C000204610BD2DE9F0410E460546002400E011
:1002D000641C285D00F0BCFA0746305D00F0B8FAF7
:1002E000381A02D1295D0029F2D1BDE8F081000061
:1002F0000FB400B58DB010A909900B9000914FF08C
:10030000FF300A9000200C900548069005480790A1
:100310006A4609A80F9900F0B5FA0DB05DF814FB14
:10032000A1080008BF0800082DE9FF5F1D464FF037
:10033000FF3BD5E9014691465F464FF00008A969A9
:100340007F1C01988847296A824688470028F6D191
:10035000BAF1FF3F0CD024F4C064002E19DD600612
:1003600014D5BAF12B0F09D0BAF12D0F0ED103E03D
:10037000584604B0BDE8F09F44F48064A9697F1C2E
:1003800001988847761E8246002E02DDBAF1300FB2
:1003900003D0B9F1000F26D032E0A969761E44F4EB
:1003A00000747F1C019888478246002E05DDBAF153
:1003B000780F06D0BAF1580F03D0B9F1000F10D062
:1003C0001EE0B9F1000F02D0B9F1100F18D1A969E0
:1003D000761E24F400747F1C019888478246102002
:1003E00002E0082000E00A20814609E008FB090835
:1003F000A969761E44F400747F1C019888478246E0
:10040000002E05DD4946504600F028FA0028EDDAB6
:10041000E96901988847A00502D46FF00100A8E7B8
:10042000E00725D1600613D5600502D5C8F10000AC
:1004300000E0404629680A1D2A600968220501D5A6
:10044000087015E0220701D5088011E008600FE070
:100450002868011D29600068210502D580F8008008
:1004600006E0210702D5A0F8008001E0C0F8008076
:1004700038467EE72DE9FF5FD2E901A74FF000087B
:10048000916999461446DDF838B046460198884788
:10049000054659EA0B0005D009E0A169761C0198D0
:1004A00088470546216A284688470028F5D1681CF8
:1004B00003D05FEACA7005D015E04FF0FF3004B0FA
:1004C000BDE8F09F2068011D2160D0F800800AE09F
:1004D0005FEACA7001D108F8015BA169761C7F1E32
:1004E000019888470546002F1ADD681C18D0B9F11D
:1004F000000F0DD0E81705EBD060421120F01F006F
:1005000059F822102A1A012090400142E0D107E058
:10051000BBF1000FDCD1216A284688470028D7D0DC
:10052000E16901988847BBF1000F07D1002E05DD76
:100530005FEACA7002D1002188F80010A068B842B2
:1005400003DDBBF1000F03D017B16FF00100B6E778
:100550003046B4E72DE9FE4F804681EA0300C00F24
:100560000C46009021F0004123F00045B8EB02005A
:10057000A94105D24046214690461C460B460246FC
:1005800023F00040104347D0270DC7F30A00C3F300
:100590000A510290401A019040286BDAC3F313000D
:1005A00040F4801B0098924620B10023D2EB030A4E
:1005B00063EB0B0B01985946C0F14002504600F026
:1005C00026F906460D4650465946019A00F02EF986
:1005D00010EB08006141002487EA115284EAE773B6
:1005E0001A4340D0009A62B3019A012A4FEA075297
:1005F00015DC001B61EB02014FF0004202EA0752DA
:10060000CDE90042001C41F5801132462B4600F036
:1006100076F903B0BDE8F08F40462146F9E7001BAC
:1006200061EB0201001C41F5801300185B412018AA
:10063000A2F5001747EB030140EAD570B6196D41EA
:1006400011E06D084FEA360645EAC0754FEA0752D9
:10065000001B61EB0201001C41F5801149084FEAC3
:1006600030000019514132462B4603B0BDE8F04F2F
:1006700000F036B90098012240000023D0EB0202BE
:1006800063EBE073009821464FEAE074B8EB00009A
:1006900061EB0401E9E783F000435BE781F000418F
:1006A00058E72DE9F04D81EA030404F0004B21F0F6
:1006B000004514464FF0000A23F0004150EA0502BD
:1006C00020D054EA01021DD0C5F30A570246C5F3F3
:1006D0001303C1F31300C1F30A5640F4801543F429
:1006E0008013A7EB0608101BD64608F2FD3873EB03
:1006F000050002D308F1010801E092185B41B8F14E
:10070000000F03DA00200146BDE8F08D00204FF411
:100710008011064684460EE0171B73EB050705D3D0
:10072000121B63EB050306434CEA010C49084FEA30
:10073000300092185B4150EA0107EDD152EA030004
:1007400012D082EA040083EA0501084305D0101B99
:10075000AB4106D20122002306E000224FF0004305
:1007600002E06FF0010253101AEB06004CEB085147
:1007700010EB0A0041EB0B01BDE8F04D00F0B0B802
:1007800030B50B46014600202022012409E021FA61
:1007900002F59D4205D303FA02F5491B04FA02F55E
:1007A0002844151EA2F10102F1DC30BD2DE9F05FF5
:1007B0000546002092469B468846064681464024D0
:1007C0001BE0284641464746224600F09BF9534627
:1007D0005A46C01A914110D311461846224600F0DD
:1007E00016F82D1A67EB01084F462246012000211A
:1007F00000F00DF817EB00094E41201EA4F1010492
:10080000DFDC484631462A464346BDE8F09F202AB1
:1008100004DB203A00FA02F1002070479140C2F157
:10082000200320FA03F3194390407047202A06DB87
:10083000CB17203A41FA02F043EAE07306E041FAAE
:1008400002F3D040C2F1200291400843194670479C
:10085000A0F14101192900D8203070473A2800D270
:10086000303820F02002412A01D3A2F1370088421B
:1008700001D34FF0FF3070470268114413780160D4
:1008800018467047D1600449516104491162002142
:100890001161114600F04CB979080008250B0008D9
:1008A000426842B1016811F8013B23B1521EC0E910
:1008B0000012184670470121C160881E70474268C7
:1008C0005AB1C368016843B983688B4205D0491E99
:1008D000521CC0E90012002070474FF0FF307047F3
:1008E00010B5141E73F1000408DA401C41F1000138
:1008F00092185B411A4301D120F0010010BD2DE98F
:10090000F04D92469B4611B1B1FA81F202E0B0FA85
:1009100080F220329046FFF77AFF04460F4640EA05
:100920000A0041EA0B0153465A46084313D01146C8
:1009300053EA010019D0C8F14002504600F0E2F835
:1009400005460E46504659464246FFF760FF0843AB
:1009500005D0012004E020463946BDE8F08D002096
:10096000054346EAE0762C4337430A986305E40AD8
:10097000A0EB08000022FD0A44EA47540A3002D5E1
:1009800000200146E9E7010510196941DDE9084544
:1009900000196941BDE8F04DA2E72DE9FE4F81EA5B
:1009A000030404F0004421F0004100944FF0000BD8
:1009B00023F0004350EA01045ED052EA03045BD006
:1009C000C3F30A54C1F30A552C44A4F2F33401943E
:1009D000A0FB0254C1F3130141F48011C3F31303CC
:1009E00043F4801301FB024400FB034E840A970A80
:1009F00044EA815447EA8357A4FB076802958D0AAD
:100A000005FB07854FEA932C04FB0C542705029D38
:100A10004FEA065847EA1637B5EB08056EEB070CA8
:100A2000870E920E47EA811742EA8312A7FB020162
:100A3000B6EB0B0164EB00042B0D43EA0C335E189C
:100A400044EB1C50DA465146E7FB0201C5F31304A0
:100A50004FEA0B3343EA14534FEA0432019C43EA52
:100A60000603A4F10C040294009CCDE900B4FFF746
:100A700046FF03B0BDE8F08F00200146F9E7C1F35F
:100A80000A52C1F3130140F2FF3341F480119A423C
:100A900002DA00200146704740F233439A42A2F244
:100AA000334202DC524200F02DB8FFF7B0BE000026
:100AB00030B5041E71F1000404DB4FF000444042E5
:100AC00064EB0101141E73F1000405DB1C464FF0BA
:100AD0000043524263EB0403994208BF904230BD89
:100AE000064C074D06E0E06840F0010394E807007B
:100AF00098471034AC42F6D3FFF74AFBB4590008CC
:100B0000D4590008202A04DB203A21FA02F00021FF
:100B1000704721FA02F3D040C2F12002914008430D
:100B200019467047C0B24FF4F05100F099B9000077
:100B30002DE9F34F8BB04FF0000801F10C000C468B
:100B40004FF0010B46460DF1080A01906269012140
:100B500001989047051E2DD0252D2CD0216A88475D
:100B6000C0B16269012101989047216A8847002835
:100B7000F7D1411E62690198904700E0761CA16997
:100B80000B988847216A88470028F7D1E1690B98BC
:100B90008847DBE7A1690B9888470746A84201D13F
:100BA000761CD3E7E1690B9888477F1C02D1B8F126
:100BB000000F6FD047E1002762693D463946019832
:100BC00090472A2804D162690121019890470125A4
:100BD000DFF888926269012101989047A0F1300105
:100BE0000A290AD24F45E5DC07EB870100EB4107F4
:100BF000303FDFD445F01005ECE7E90601D46FF093
:100C000000476C280AD04C2814D0682815D06A28D0
:100C10000DD074281CD07A281AD01DE062690121F9
:100C2000019890476C2802D045F0040514E045F087
:100C300002050DE045F020050AE0626901210198F6
:100C40009047682802D045F0080505E045F40065A6
:100C50006269012101989047C4E9015765283DD098
:100C600019DC58287AD00CDC452837D004DC25283C
:100C700026D0412831D131E046282FD047282CD129
:100C80002CE05B2877D0612828D063287CD06428AA
:100C900023D15AE0D1E06F2848D008DC66281DD067
:100CA00067281BD0692821D06E2816D127E070282C
:100CB00045D0732868D0752847D078280DD14DE0ED
:100CC000A1690B988847054625283FF469AFE1697B
:100CD0000B9888476D1C3FF46AAFB4E023466A4620
:100CE0006FF001000B99AFF300809FE045F04000EA
:100CF0006060A80723464FF0000236D43EE0E807C4
:100D00007FF447AF2068011D21600068290501D5E7
:100D100006701BE7290701D5068017E7A90703D549
:100D2000F117C0E9006111E706600FE745F04000E8
:100D30006060A80723464FF0080216D41EE040F674
:100D40000E0125EA0100606016E045F04000606099
:100D5000A80723464FF00A0207D40FE045F04000F1
:100D60006060A80708D5234610226FF001000B9998
:100D7000AFF300805AE007E0234610226FF0010035
:100D80000B99FFF7D1FA51E04FF000094F464B465F
:100D9000632802D05B2807D041E02079C00601D447
:100DA0000120A06001273AE0626901210198904783
:100DB0005E2805D14FF001096269494601989047C4
:100DC000216939B900210A46534643F82120491CBC
:100DD0000829FADBB0B3216969B9C11700EBD16208
:100DE00053110AEB830122F01F02821A01200B68C3
:100DF000904003430B6062690121019890475D2890
:100E0000E8D1B9F1000F09D00020514651F8202057
:100E1000D24341F82020401C0828F7DB02AB2246D1
:100E200000976FF001000B99FFF724FB00280CDA04
:100E3000401C08D1BBF1000F05D04FF0FF300DB0C2
:100E4000BDE8F08FFFE74046F9E7E90701D108F177
:100E5000010806444FF0000B78E60000CCCCCC0C27
:100E60007F2801D9002208E0064A02EB5002C007A1
:100E7000127800D1120902F00F02012090400840C0
:100E8000704700007C5800080029816802D041F0BA
:100E9000010101E021F0010181607047084B10B5AC
:100EA000D3F8042307490A40D0E900142143D0E9CC
:100EB0000240044321431143C3F8041310BD000052
:100EC00000200140E030FCFF0029816802D041F49D
:100ED000807101E021F48071816070470029816890
:100EE00002D041F4007101E021F40071816070478B
:100EF00030B542680F4B0C791A400B6842EA042265
:100F00001343436082680C4B4D791A40D1E9034387
:100F100023438C6844EA4504234313438360C26A35
:100F2000097D22F47002491EC9B242EA0151C16230
:100F300030BD0000FFFEFFFCFDF7FFC070B50726C7
:100F400009290AD9C568A1F10A0404EB4404A640A2
:100F5000B543A3401D43C56007E0056901EB4104AB
:100F6000A640B543A3401D4305611F23072A09D2AC
:100F7000446B521E02EB820293409C4391400C430F
:100F8000446370BD0D2A09D2046BD21F02EB8202AA
:100F900093409C4391400C43046370BDC46A0D3A76
:100FA00002EB820293409C4391400C43C46270BDAB
:100FB000816841F0804181607047002101600171CA
:100FC00041718160C16001610121017570470000BC
:100FD0001A48018800EE101A1B49F8EE400A9FEDEE
:100FE000180A20EE801ADFED170A21EE201A81ED93
:100FF000001A428801EE102AB8EE411A21EE001ABA
:1010000021EE201A81ED011A8088002301EE100ADA
:101010000F480322B8EE411A21EE000A20EE200A02
:10102000DFED0A0A20EE200A81ED020ABCEEC00ABA
:10103000006810EE101A04F045B900005C000020B2
:101040000000803933335340E000002000007A4430
:101050006400002010B5044601F006F8D02000F02E
:10106000ABFF01F049F8FF2C03D901F023F8FF2072
:1010700010BDE0B200F0A0FF01F03EF800F0F4FF78
:10108000D12000F099FF01F037F8002000F05CFF5C
:10109000044601F00FF8204610BD70B50D46044619
:1010A00000F0E2FF08B1012070BDD02000F084FF05
:1010B00001F022F808B9FF2C02D900F0FBFFF2E79B
:1010C000E0B200F079FF01F017F8284600F074FF55
:1010D00001F012F800F0EEFF052002F006F9002002
:1010E00070BD00002DE9FC4103F092F804210022BC
:1010F000084603F0A1FD4B4C00220821E0610420CA
:1011000003F09AFDA062E06910B147A001F088FCED
:101110004FF4807500222946052003F08DFD6062A2
:1011200010B94EA001F07CFC03220021012003F045
:1011300083FD206210B157A001F072FC03F0DEFBCA
:10114000A06110B163A001F06BFC022635483702A4
:10115000CDE9006000233A466BA16E4804F086F8A2
:10116000012802D16CA001F05BFC2E48002308305E
:10117000CDE900602A4672A1744804F077F801288E
:1011800002D173A001F04CFC264803260C30CDE9B7
:10119000006000233A4678A17A4804F067F80128F5
:1011A00002D179A001F03CFC1E4901201031CDE9AB
:1011B000000100234FF420727EA1834804F056F80A
:1011C000012802D181A001F02BFC90480023CDE939
:1011D00000602A468EA1914804F048F8012802D107
:1011E0008FA001F01DFC9948012300901A464FF48E
:1011F0007A7197A004F080FA606160B198A001F064
:101200000FFC04F0E5F8024600200346009001219F
:10121000606904F0E9FA606803F07AF9BDE8FC411E
:1012200003F032B824000020546573745F51756573
:101230007565EFBFBDEFBFBDCFA2EFBFBDEFBFBDB7
:10124000EFBFBDD0B4EFBFBDEFBFBDEFBFBDEFBFC0
:10125000BDC9B9EFBFBD210A00000000464154419D
:101260004C204552524F523A2051756575652063A6
:1012700072656174696F6E206661696C65642120B6
:1012800053797374656D2068616C7465642E0D0A02
:101290000000000042696E61727953656D5F4861BC
:1012A0006E646C65EFBFBDEFBFBDD6B5EFBFBDC50A
:1012B000BAEFBFBDEFBFBDEFBFBDEFBFBDEFBFBD5D
:1012C000EFBFBDEFBFBDEFBFBDC9B9EFBFBD210AC5
:1012D000000000004B45595F4576656E745F4861BC
:1012E0006E646C6520EFBFBDC2BCEFBFBDEFBFBD7C
:1012F000EFBFBDEFBFBDEFBFBDEFBFBDC9B9EFBF12
:10130000BD210D0A000000004C45445F5461736B21
:1013100000000000ED220008EFBFBDEFBFBDEFBF32
:10132000BDEFBFBD4C45445F5461736BEFBFBDEF74
:10133000BFBDEFBFBDEFBFBDC9B9EFBFBD210A0043
:101340004B65795F5461736B00000000092200084F
:10135000EFBFBDEFBFBDEFBFBDEFBFBD4B65795F59
:101360005461736BEFBFBDEFBFBDEFBFBDEFBFBD3E
:10137000C9B9EFBFBD210A00556172745F54617332
:101380006B000000C5290008EFBFBDEFBFBDEFBF78
:10139000BDEFBFBD556172745F5461736BEFBFBD2C
:1013A000EFBFBDEFBFBDEFBFBDC9B9EFBFBD210AE4
:1013B000000000005461736B5F436D645061727391
:1013C0006545786563000000B53D0008EFBFBDEFDF
:1013D000BFBDEFBFBDEFBFBD7461736B5F70617266
:1013E00073655F616E645F657865637574655F637F
:1013F0006F6D6D616E64EFBFBDEFBFBDEFBFBDEF41
:10140000BFBDC9B9EFBFBD210D0A000064000020B7
:101410004B616C6D616E5461736B0000E5450008B3
:10142000EFBFBDEFBFBDEFBFBDEFBFBD4B616C6D8B
:10143000616E5461736BEFBFBDEFBFBDEFBFBDEF1A
:10144000BFBDC9B9EFBFBD210D0A0000D10F000813
:101450004175746F52656C6F616454696D6572009B
:10146000EFBFBDEFBFBDEFBFBDEFBFBD4164637454
:10147000696D65725F48616E646C65EFBFBDEFBFFB
:10148000BDCAB1EFBFBDEFBFBDEFBFBDC9B9EFBFB3
:10149000BD210D0A0000000030B5134C85B00221BB
:1014A000204600F0DDF800281CD00221204600F084
:1014B00035F86A460021204600F0A2F90BA00099F9
:1014C00001F0AEFA00246D4605E02819C17A10A09B
:1014D00001F0A6FA641C9DF80A00A042F5DC0EA0FB
:1014E00001F09EFA05B030BD0064004043414E203B
:1014F0005265636569766564202D2049443A203041
:1015000078253033582C20446174613A2000000063
:1015100025303258200000000A00000030B50823B2
:1015200010240422B1F5007F1DD010DC202929D021
:1015300007DC012921D0042922D0082900D1C46068
:1015400030BD402920D0B1F5807FF9D10BE00025D6
:10155000B1F5004F06D008DCB1F5806F03D0B1F5CE
:10156000006FEDD18561426030BDB1F5803F0DD097
:10157000B1F5003FF8D1446030BD0549816030BD10
:10158000C36030BD036130BD046130BD436030BD18
:1015900001010100F0B5827A2F4D012191402A68A6
:1015A00042F001022A602C4E1C3632688A433260B7
:1015B000294A047B294B0C32A4B914688C4314606B
:1015C0004488C78844EA0744877A03EBC707C7F80B
:1015D00040460488878844EA0744877A03EBC707B4
:1015E000C7F84446047B012C12D114680C431460E4
:1015F000847A026803EBC4044FEA3242C4F84026FE
:10160000847A426803EBC4034FEA3242C3F84426AB
:10161000114AC37A121D002B136806D00B431360C6
:101620000D4A0389143213B104E08B43F7E71368C2
:101630008B4313600389012B02D113680B431360A2
:10164000407B012802D1306808433060286820F0D0
:1016500001002860F0BD000000660040006000400E
:101660000246002053690B424AD0B1F5807F3BD03F
:1016700013DC08292ED007DC012926D0022927D027
:1016800004293DD1D0682BE0102925D0202926D06F
:10169000402935D11069102130E0B1F5004F2BD031
:1016A0000BDCB1F5007F22D0B1F5806F22D0B1F50F
:1016B000006F25D19069702120E0B1F5803F11D0F5
:1016C000B1F5003F1CD15068E5E790680D4915E081
:1016D000D06802E0D068DEE7106903210EE01069EF
:1016E00008210BE05068FBE79069012106E0906952
:1016F000022103E0906900E05068042100F038B94D
:101700007047000001010100002A426901D00A432C
:1017100000E08A434261704710B50368002223F05D
:1017200002030360036843F0010303604FF6FF7395
:1017300000E0521C4468E40701D19A42F9D14268A2
:10174000D2073ED08A79012A02683CD022F080027A
:101750000260CA79012A026838D022F04002026091
:101760000A7A012A026834D022F0200202604A7A02
:10177000012A026830D022F0100202608A7A012A1F
:1017800002682CD022F008020260CA7A012A02689C
:1017900028D022F0040202608A78CC78920742EACC
:1017A00004620C7942EA04424C79098842EA045204
:1017B000491E0A43C261016821F001010160002154
:1017C00014E0002010BD42F08002C1E742F0400268
:1017D000C5E742F02002C9E742F01002CDE742F02F
:1017E0000802D1E742F00402D5E7491C4268D2075B
:1017F00001D09942F9D14068C007E2D1012010BD63
:1018000010B500EB0113D3F8B04114F004041472C6
:10181000D3F8B04133D0E4085460D3F8B04104F0B9
:1018200002045472D3F8B44104F00F049472D3F854
:10183000B441240AD474D3F8B841D472D3F8B8416F
:10184000240A1473D3F8B841240C5473D3F8B84164
:10185000240E9473D3F8BC41D473D3F8BC41240A4A
:101860001474D3F8BC41240C5474D3F8BC311B0E4F
:10187000937439B1016941F02001016110BD640D1B
:101880001460CAE7C16841F02001C16010BD0000CA
:1018900070B58AB00121022000F07AFD01214806CE
:1018A00000F08EFD304E09220D21304600F0F4FA92
:1018B00009220C21304600F0EFFA02218DF82010A9
:1018C0008DF821104FF40050002407908DF822402D
:1018D00001258DF8235007A9304600F0A1FA28030E
:1018E000079007A9304600F09BFA8DF816400420B7
:1018F0008DF817408DF812508DF814008DF81340B4
:1019000003211A4E8DF81510ADF81000069404A9A5
:101910003046FFF701FF8DF80A408DF80B408DF837
:101920000C50ADF80040ADF80440ADF80240ADF801
:101930000640ADF808408DF80D506846FFF72AFEC6
:1019400014208DF824008DF825508DF826408DF850
:10195000275009A800F0E0FC012202213046FFF7E1
:10196000D3FE0AB070BD00000004024000640040D5
:10197000024600200A4200D001207047074A9042E8
:1019800001D2074801E005481038064A8B0001EAF9
:10199000020101D5C1607047816070471064024048
:1019A000006002407D0F7D0F0029016802D041F0E8
:1019B000010101E021F00101016070472DE9F043D0
:1019C000016821F001010160002101604160816036
:1019D000C1600161212141613C493C4A3D251039EA
:1019E000904202D18D60BDE8F083384A4FF47466AE
:1019F0001832904201D18E60F5E7344A4FF47417E3
:101A00003032904201D18F60EDE7304A4FF0746C74
:101A10004832904202D1C1F808C0E4E72B4B2C4A6F
:101A20006033984201D1CA60DDE7284C294B7834F5
:101A3000A04201D1CB60D6E7DFF89080264C08F1B8
:101A40009008404501D1CC60CDE7DFF880804FF0B1
:101A50003D5908F1A808404502D1C1F80C90C2E7F1
:101A60001E49DFF878800839404501D10D60BAE79A
:101A70001A4D1835A84201D10E60B4E7174D303524
:101A8000A84201D10F60AEE7144D4835A84202D1FB
:101A9000C1F800C0A7E7114D10496035091FA842E1
:101AA00001D10A609FE70D4A7832904201D10B6064
:101AB00099E70A4A9032904201D10C6093E7074AB5
:101AC000A83290428FD1C1F800908CE7106002409C
:101AD0003D000020400F002000003D201064024027
:101AE0000B0607D5436912B143F0800301E023F0F0
:101AF00080034361802908D0002A026801F01E019A
:101B000001D00A4300E08A430260704730B50368A1
:101B1000124ACC6813400A682243D1E905452C4398
:101B20002243CC6922430C6A22434C6A22438C6ACA
:101B300022434C6B22438C6B22431A43026042695E
:101B400022F00703D1E90B2422431A4342610A69B8
:101B500042604A6882608968C16030BD3F801CF085
:101B600041607047F0B5012187B0084600F010FCD5
:101B70000121102000F030FC022500248DF80640E1
:101B800001268DF807602802284F8DF80550009037
:101B90008DF804506946384600F042F9680200901A
:101BA0008DF804506946384600F03AF907220A21B8
:101BB000384600F071F907220921384600F06CF927
:101BC0004FF4E1300290ADF810400C20184DADF804
:101BD0000C40ADF81200ADF80E40ADF8144002A96B
:101BE000284600F01FFE4FF4407000F0C7FB252090
:101BF0008DF8180007208DF819008DF81A408DF81F
:101C00001B6006A800F088FB012240F22441284610
:101C100000F0F0FD01224021284600F0BDFD012129
:101C2000284600F0AFFD07B0F0BD00000000024004
:101C30000010014038B55020EFF3118480F3118873
:101C4000BFF34F8FBFF36F8F012000F051F898B1B1
:101C50000C4800236A460A49006803F0F3F900982B
:101C600038B109494FF080500860BFF34F8FBFF380
:101C70006F8F012000F036F884F3118838BD000022
:101C8000500000204000002004ED00E038B5502056
:101C9000EFF3118480F31188BFF34F8FBFF36F8F81
:101CA0004FF40055284600F023F890B10B4800236C
:101CB0006A460949006803F0C5F9009830B108493F
:101CC000E8030860BFF34F8FBFF36F8F284600F023
:101CD00009F884F3118838BD54000020400000202A
:101CE00004ED00E00149086070470000143C014029
:101CF000034A0146002012680A4200D001207047C2
:101D0000143C014030B51A4A8379016853B3136813
:101D10008B431360111D0B680468A3430B600179AA
:101D200011440B68046823430B60114B0833196896
:101D30000468A14319601C1D21680568A94321603E
:101D40004179102905D011440A68006802430A60ED
:101D500030BD1968026811431960216800680143A9
:101D6000216030BD0079104402688A43026030BDB2
:101D7000003C014070B586B00121052000F008FB51
:101D80000121880300F028FB4FF4407000F0F6FAC0
:101D900006208DF810008DF8110000258DF81250E6
:101DA00001248DF8134004A800F0B6FA28208DF81D
:101DB000100004A800F0B0FA8DF80C5002208DF845
:101DC0000F00029402A9144800F02AF800210846E6
:101DD00000F012FC8DF8045008208DF805000094E6
:101DE0008DF806406846FFF78DFF660302A90B4891
:101DF000029600F015F80D21022000F0FDFB8DF891
:101E000004500C208DF8050000968DF806406846B9
:101E1000FFF778FF06B070BD0000024000080240E6
:101E2000F0B5002201274FF0030C0B6807FA02F50A
:101E30002B40AB422CD1066853000CFA03F4A643A6
:101E400006600E79D0F800E09E4046EA0E06066075
:101E50000E79012E01D0022E12D18668A64386602B
:101E60004E79D0F808E09E4046EA0E068660466845
:101E7000AE43466045688E799640B6B235434560BC
:101E8000C568A543C560CC799C40C3681C43C46049
:101E9000521C102AC9D3F0BD4B07DB0E9A40C9086B
:101EA00010B500EB8100016A0F249C40A143016240
:101EB000016A1143016210BD0246002012690A4204
:101EC00000D00120704741837047018370470000B4
:101ED00070B50D4D4FF4807421462846FFF7F3FF8F
:101EE00061002846FFF7EFFF012001F00BFA2146C1
:101EF0002846FFF7EAFF012001F004FA21462846B0
:101F0000BDE87040FFF7DFBF0004024070B50D4D23
:101F10004FF4807421462846FFF7D5FF610028461C
:101F2000FFF7D3FF012001F0EDF921462846FFF726
:101F3000CCFF012001F0E6F921462846BDE87040BB
:101F4000FFF7C1BF000402402DE9F047194E81465A
:101F500000244FF400713046FFF7B7FFDFF85480DC
:101F60000025B71508F1100839463046FFF7ABFFDA
:101F7000012001F0C7F939463046FFF7A6FF600699
:101F8000040ED8F80000800501D5641CE4B20120DD
:101F900001F0B8F96D1CEDB2082DE5D3B9F1000FD1
:101FA00004D0FFF795FF2046BDE8F087FFF7AEFFAE
:101FB000F9E70000000402402DE9F041184F054602
:101FC0004FF4807631463846FFF77DFF00244FF40A
:101FD000007828064146384602D5FFF776FF01E033
:101FE000FFF771FF6806050E012001F08BF93146FD
:101FF0003846FFF76AFF012001F084F93146384680
:10200000FFF761FF012001F07DF9641CE4B2082CA8
:10201000DFD341463846BDE8F041FFF756BF000028
:10202000000402401CB50121022000F0B1F94FF478
:102030004070009001208DF804008DF80600032107
:102040008DF80510074C8DF8070069462046FFF70C
:10205000E7FEA1152046FFF738FF61152046FFF780
:1020600034FF1CBD0004024070B5114C4FF40075E4
:1020700029462046FFF729FFA61531462046FFF7DF
:1020800024FF012001F03EF9094A10321068800552
:1020900001D4012070BD29462046FFF714FF01201E
:1020A00001F030F931462046FFF70DFF002070BDEA
:1020B0000004024070B50F4D4FF48074214628464D
:1020C000FFF701FF660031462846FFF7FCFE0120BE
:1020D00001F018F921462846FFF7F7FE012001F02C
:1020E00011F931462846FFF7F0FEBDE870400120A7
:1020F00001F008B90004024070B5154E4FF4807528
:10210000002429463046FFF7DEFE69003046FFF71F
:10211000DCFE012001F0F6F829463046FFF7D5FE37
:10212000012001F0EFF80A48103007E0641CE4B227
:10213000FA2C03D9FFF7BEFF012070BD01688905A5
:10214000F4D429463046FFF7BEFE002070BD0000E3
:10215000000402401CB50121052000F019F90020FF
:102160008DF8040002208DF80700012000906946D8
:102170000548FFF755FE4FF40050009069460348AC
:10218000FFF74EFE1CBD00000000024000080240A8
:102190002DE9F0410D46064601F0E0F8041E31D06D
:1021A00029463046FFF788FE012800D00020002293
:1021B000A7790123032502261146052F1BD2DFE84C
:1021C00007F003061D111D00D8B1A37118E090B1EE
:1021D000E079401CC0B2E071062812D3A671E1710B
:1021E00001220EE008B1A67106E0E079401CC0B201
:1021F000E071062805D3A171E17102E008B9A5716B
:10220000E3711046BDE8F081114D124F124C4FF4AE
:10221000005601212846FFF7BBFF012806D10FA079
:1022200000F0FEFB0121A06902F076FB3146384642
:10223000FFF7AEFF012806D10FA000F0F1FB02214D
:10224000A06902F069FB142002F028F9E1E7000020
:102250000000024000080240240000204B45593194
:1022600020EFBFBDEFBFBDEFBFBDEFBFBDEFBFBD37
:10227000EFBFBD0A000000004B45593220EFBFBD43
:10228000EFBFBDEFBFBDEFBFBDEFBFBDEFBFBD0A2D
:10229000000000002DE9FC410121202000F078F829
:1022A00001208DF8040000218DF806108DF807003C
:1022B0000D4F40248DF80510009469463846FFF70D
:1022C000AFFD8025694638460095FFF7A9FDA600B9
:1022D000694638460096FFF7A3FD0348183004808E
:1022E00005800680BDE8FC810014024008B5084D59
:1022F000084C4FF0FF360096002301220321A86905
:1023000002F066FB206880F080002060F3E70000A8
:10231000240000201414024030B50F23C278017845
:102320000125FAB1144A126801F1E02102F4E062D9
:10233000C2F5E062C2F30722C2F10404D34042783E
:10234000A24084781C401443220181F800240078C4
:1023500000F01F018D404009800000F1E020C0F82E
:10236000005130BD01F01F0085404809800000F198
:10237000E020C0F8805130BD0CED00E00249084378
:1023800002490860704700000000FA050CED00E00B
:10239000044A0029116801D0014300E08143116023
:1023A0007047000030380240044A0029116801D00B
:1023B000014300E08143116070470000343802405F
:1023C000044A0029116801D0014300E081431160F3
:1023D0007047000040380240044A0029116801D0CB
:1023E000014300E08143116070470000443802401F
:1023F00070B5204B1968204C11F00C0104D01F4E11
:10240000042903D0082903D004601BE0066019E00A
:10241000184A121F1168C1F38055116801F03F017D
:1024200015B1B6FBF1F101E0B4FBF1F114681268EB
:10243000C4F388146143C2F30142521C5200B1FB41
:10244000F2F1016019680F2202EA11110C4A545C82
:102450000168E14041601C68072505EA9424145D89
:1024600021FA04F484601B6805EA5333D25CD1403E
:10247000C16070BD083802400024F40040787D013E
:102480001400002005490028086802D040F004002C
:1024900001E020F0040008607047000000080650CA
:1024A0002DE9F04101219AB08805FFF771FF34480A
:1024B0000190344802A90024032681E851004FF41A
:1024C0008060CDE905404000079080004711CDE9CC
:1024D00008070AA90001012581E83100DFF8A8807A
:1024E0000D940E94694640460094FFF70FFB0121BE
:1024F0004046FFF759FA01213846FFF76DFF2804DF
:10250000CDE915404FF47060CDE9174015A8FEF7EE
:10251000C5FC0FA8FEF751FD0F941194129413946B
:10252000174C8DF840504C3C8DF841508DF8506060
:102530000FA92046FEF7DCFC0023012208212046DB
:10254000FEF7FCFC0023022209212046FEF7F6FCE0
:102550000023032206212046FEF7F0FC012120463D
:10256000FEF7BCFC01212046FEF7AEFC012120460F
:10257000FEF78AFC2046FEF71BFD1AB0BDE8F0818D
:102580004C2001405C000020106402407CB5012119
:102590000220FFF7FDFE01200325154E00908DF867
:1025A000045000248DF8074069463046FFF738FC98
:1025B00001210220FFF7ECFE022000908DF804506C
:1025C0008DF8074069463046FFF72AFC012108468E
:1025D000FFF7DEFE402000908DF804508DF8074094
:1025E00069460448FFF71CFCBDE87C40FFF758BF74
:1025F000000402400000024010B58A0721F00304E5
:102600000849120F21440F23D1F8084893409C43F6
:10261000C1F80848D1F8083890400343C1F8083899
:1026200010BD0000003001400CB500222749009287
:102630000192086840F4803008604FF4A0430868B5
:1026400000F4003001900098401C0090019810B9EF
:1026500000989842F3D10868800334D50120019096
:102660001A484030026842F08052026018480268FE
:1026700042F4404202601548083002680260026875
:1026800042F400420260026842F4A0520260031F5A
:10269000104A1A600A6842F080720A600A68920161
:1026A000FCD50D4940F205720A60016821F0030172
:1026B0000160016841F0020101600168C1F381011C
:1026C0000229FAD10CBD01920CBD00000038024075
:1026D0000070004019544007003C024010B502F061
:1026E00069FE012803D0BDE8104002F08FBA10BD8A
:1026F000124810B5016841F470010160104801688A
:1027000041F0010101600E4A0021083211600268A7
:102710000C4B1A400260031D0B4A1A60026822F437
:102720008022026006480C300160FFF77DFF0349FC
:102730004FF000608039086010BD000088ED00E0B7
:1027400000380240FFFFF6FE1030002470B5502024
:10275000EFF3118480F31188BFF34F8FBFF36F8FB6
:10276000074D40F22441284600F025F820B100F042
:10277000F5F8284600F0ACF884F3118870BD00002D
:10278000001001400029818902D041F4005101E08C
:1027900021F4005181817047002A828A01D00A43C6
:1027A00000E08A43828270470246002012880A4273
:1027B00000D00120704770B501F01F0501260024EC
:1027C000C1F3421306FA05F2012B0FD0022B0FD0F2
:1027D000838A4FEA11210088134206FA01F600EAC3
:1027E000060001D000B10124204670BD8389F0E7C6
:1027F000038AEEE710B5C1F3421301F01F04012173
:10280000A140012B07D0022B07D01430002A026808
:1028100005D00A4304E00C30F8E71030F6E78A43AD
:10282000026010BD7FB50446008A0D46C98820F4B9
:10283000405001432182A08941F20C618843A9885C
:102840002A8911436A8902431143A181A08A20F495
:102850004071A8890843A0826846FFF7C9FD1A485D
:10286000844202D01948844201D1039800E00298C2
:10287000A189090400EBC00101EB0010296801D512
:10288000490000E08900B0FBF1F06422B0FBF2F1F6
:1028900009010B096FF018056B4300EB8300A38956
:1028A0001D044FF0320306D503EBC000B0FBF2F07D
:1028B00000F0070005E003EB0010B0FBF2F000F0C1
:1028C0000F00084320817FBD00100140001401402B
:1028D0008088C0F308007047C1F308018180704709
:1028E00010B5012190B08805FFF752FD184C204625
:1028F000FFF764F84FF0006000901648019016480A
:1029000002AB0021A21583E807009000CDE9051075
:10291000CDE908124FF44030CDE90A0107910320B8
:10292000CDE90C010E9169462046FFF7EFF84FF014
:1029300081512046FFF722F8012204212046FFF7AB
:10294000CFF801212046FFF72FF810B010BD00008E
:1029500040640240041001400C01002038B5144CC2
:1029600000212046FFF720F84FF081512046FFF765
:1029700005F8A1152046FFF7F3F801212046FFF7DF
:1029800013F80C486946006802F0CAFB0B480023A4
:102990006A460949006802F055FB0098002806D0F5
:1029A0000749A0050860BFF34F8FBFF36F8F38BD95
:1029B00040640240440000200C0100204800002038
:1029C00004ED00E04FF0FF360C4C0B4DA715002333
:1029D00032461946286A02F067F90128F7D12068C3
:1029E00080F080002060064906A000F019F8394602
:1029F0000348FDF75CFCEAE72400002014140240C1
:102A00000C010020EFBFBDD5B5EFBFBDEFBFBDEFDF
:102A1000BFBDEFBFBDEFBFBD3A25730A0000000088
:102A20000FB4054B10B503A9044A029800F0DAF878
:102A300010BC5DF814FB000039330008DC000020F6
:102A400002E008C8121F08C1002AFAD17047704777
:102A5000002001E001C1121F002AFBD170470000D5
:102A60002DE9FF5F82B00021DDE90430020DDDF8C1
:102A700040B0034318D044F61050A2F2FF32424354
:102A80001514119801281FD0A5EB0B00401C5FEA1C
:102A9000000A4FF000064E4FDFF83891B04650461E
:102AA00015D5CAF1000413E0119801244AA30128A6
:102AB00001D16FEA0B010298119AC0E90031C0E917
:102AC000024206B0BDE8F09FCBF10000DFE704460C
:102AD0000021404A491842EB0450CDE9001012E0B1
:102AE000E00707D032463B4640464946FDF755FFD2
:102AF0008046894632463B4610461946FDF74DFF53
:102B000006460F466410002CEAD1DDE90401DDE938
:102B10000023BAF1000F06DAFDF73FFF42464B46AD
:102B2000FDF73BFF05E0FDF7BCFD42464B46FDF7D8
:102B3000B8FD04460E460022284BFDF7B9FF03D826
:102B40004FF0FF30014607E00022254B204631467A
:102B5000FDF700FDFDF793FF102409E0002C0ADBD0
:102B60000A220023FDF722FE039B30321A55641E11
:102B700050EA0102F2D1641C039AC4F11103144417
:102B8000119A012A03D0012208430DD10AE008431B
:102B900004D000204FF0110B119072E7A3EB0B054E
:102BA0006D1E0DE05B4504DD4FF0000205F10105EF
:102BB00004E003DA4FF00002A5F10105002AECD091
:102BC00002981199C0E90231C0E9004579E7000097
:102BD000000014400000F03F300000000000F0430F
:102BE0000000E03F2DE9FF4F95B09A468846064623
:102BF0000025EEE1252877D100242746F94A012156
:102C0000039400E0044316F8013F203B01FA03F06F
:102C10001042F7D130782A2811D06FF02F03307886
:102C2000A0F13002092A16D8039A44F0020402EBFC
:102C3000820203EB42021044761C0390EFE758F83F
:102C4000042B0392002A03DA504244F40054039008
:102C500044F00204761C30782E2816D116F8010FA5
:102C600044F004042A280DD06FF02F023078A0F130
:102C70003003092B09D807EB870302EB4303C7187E
:102C8000761CF3E758F8047B761C30786C280FD05C
:102C900006DC4C2817D068280DD06A2814D104E02F
:102CA000742810D07A280FD10DE044F400140AE003
:102CB00044F4801401E044F440147278824202D15A
:102CC00004F58014761C761C307866280BD013DC53
:102CD000582877D009DC002875D04528F6D046283A
:102CE000F4D047281AD193E118E0632835D064283E
:102CF00079D0652812D18BE1702873D008DC672861
:102D0000F1D069286FD06E280DD06F2806D1ACE0C5
:102D100073282CD0752874D0782853D05246179930
:102D200090476D1C54E1C4F30250022809D00328D7
:102D30000DD0D8F8001004280DD00D6008F104085B
:102D400046E1D8F80010EA17C1E90052F6E7D8F8D2
:102D500000100D80F2E70D70F0E718F8041B8DF8F5
:102D6000001000208DF80100EB46012003E058F828
:102D700004BB4FF0FF3061074FF0000102D40DE0BB
:102D800009F101018946B9420FDA8145F8DB1BF8E8
:102D900009100029F4D108E009F1010189468142B6
:102DA000FADB1BF809100029F6D103985346A0EB73
:102DB000090721463846179A00F080FA284400EBAC
:102DC000090507E044E008E10DE01BF8010B52465D
:102DD00017999047B9F10109F7D253462146384671
:102DE000179AF2E039E00A21C4F302524FF0000BC7
:102DF0000091022A06D058F8040BC117032A09D003
:102E00000AE023E008F1070020F00702F2E80201DF
:102E1000904605E000B2C117042A01D140B2C117A3
:102E2000002906DA0A460021404261EB02012D2208
:102E300002E0220504D52B228DF80420012203E0B4
:102E4000E20701D02022F7E7914657E00A2100E08F
:102E500010214FF0000B00910BE010214FF0000B00
:102E600044F004040827009103E008204FF0000B11
:102E70000090C4F30252022A05D058F8040B002136
:102E8000032A08D008E008F1070020F00702F2E862
:102E90000201904603E080B2042A00D1C0B24FF094
:102EA000000922072AD53278702A07D0DDF800C041
:102EB0008CF0100C5CEA0B0C05D00EE040228DF873
:102EC0000420012208E050EA010306D030238DF8E7
:102ED00004308DF8052002229146009B83F0080300
:102EE00053EA0B030AD150EA010201D1620705D56A
:102EF00030228DF804204FF001097F1E3278582AC5
:102F000004D039A20C920CAA02920BE03BA2F9E782
:102F10005B46009AFDF74AFC0C9B9B5C029A521E92
:102F20000292137050EA0102F2D1029804A9081A21
:102F300000F1200B600702D524F4803400E0012763
:102F40005F4502DDA7EB0B0000E0002000EB0B016A
:102F5000009003984944401A0390E00306D4534676
:102F60002146179A039800F0A9F90544002706E0C6
:102F700001A85246C05D179990476D1C7F1C4F45B4
:102F8000F6DBE0030CD553462146179A039800F070
:102F900095F9054404E030205246179990476D1C7E
:102FA0000099481E00900029F5DC08E0029802997B
:102FB00052460078491C0291179990476D1CBBF14D
:102FC0000001ABF1010BF1DC5BE100F065F90544B8
:102FD000761C307800287FF40DAE19B02846BDE885
:102FE000F08F000009280100303132333435363794
:102FF0003839616263646566000000003031323345
:1030000034353637383941424344454600000000E4
:10301000600700D4062708F1070020F00700F0E859
:103020000223804603F0004C5FEA0C0001D097A019
:1030300009E0200501D596A005E0E00701D095A0A4
:1030400001E0AFF24C001390307823F00043652884
:103050000CD006DC452809D046281DD047287FD152
:103060003BE0662818D067287AD136E00021112F7E
:1030700001DB112000E0781CCDE9000104A90CA8B7
:10308000FFF7EEFCDDE90D010C9A4FF0000B07F1A4
:103090000109109200914EE04FF000400097CDE9F9
:1030A000011004A90CA8FFF7DBFCDDE90D020C9B65
:1030B0000F994FF0000B91461093009211B9791CB3
:1030C00000EB0109B7EB090003D4C0F1FF3B07F1A6
:1030D0000109A9EB0700019042E0012F00DA012766
:1030E0000021112F01DD112000E03846CDE900015B
:1030F00004A90CA8FFF7B4FCDDE90D010C9A0091BE
:103100004FF0000BB946109221070FD4009A4A45A0
:1031100003DA914601E0A9F10109B9F1010F05DDDA
:10312000109AA9F10101515C3029F4D0B84202DAB9
:1031300010F1040F03DA0121CDE9011010E000289D
:1031400003DC8344A9EB000102E0411C494500DD9A
:103150008946A0EB0B00401C01904FF0004002900C
:10316000200705D40198484502DB4FF0FF3001905D
:1031700000208DF84B0002980DF14B07B0F1004F85
:1031800025D002200C902B200D90029800280CDAFC
:10319000404202902D200D9007E00A210298FDF791
:1031A000EFFA3031029007F8011D0C99481E0C907F
:1031B0000029F2DC02980028EFD1791E0D980870E2
:1031C000307800F0200040F0450007F8020D11A80B
:1031D000C01BC01D02901398007800B1012000EBC5
:1031E0000901019801EBE071029801440398401A2B
:1031F000401E0390E00306D453462146179A0398D5
:1032000000F05CF805441398007818B152461799FD
:1032100090476D1CE00323D553462146179A039827
:1032200000F04CF805441BE0BBF1000F07DB0098F1
:10323000584504DD1098179910F80B0001E0179914
:1032400030205246904701980BF1010B401E05F1CA
:103250000105019004D12E205246179990476D1C0C
:10326000B9F10001A9F10109DEDC05E017F8010B55
:103270005246179990476D1C0299481E02900029EA
:10328000F4DC53462146179A03989EE62D00000071
:103290002B000000200000002DE9F041044600252D
:1032A0001E461746880404D405E039462020B0475E
:1032B0006D1C641EF9D52846BDE8F0812DE9F0416A
:1032C000044600251E469046C80301D5302700E07D
:1032D0002027880404D505E041463846B0476D1CD8
:1032E000641EF9D52846BDE8F08170B50546002476
:1032F0004FF47A7603E0304600F004F8641CAC42E8
:10330000F9D370BD70B54FF0E02500216C69094A12
:10331000AB6912785043AA699A42FCD002D2A3EB5F
:10332000020302E0A4EB020633441944134681422F
:10333000F1D370BD5800002070B5074D0446C1B2EE
:103340002846FFF7C9FA80212846FFF72DFA002802
:10335000F9D0204670BD00000010014070B5FF2379
:10336000114D002255F83240844207D105EBC206C8
:10337000B6888E4202D105EBC20070BDFF2B01D191
:1033800004B91346521CD2B2042AEBD3FF2B08D047
:1033900045F8330005EBC300818000218171C171C4
:1033A00070BD002070BD0000EC00002080ED031A0D
:1033B000C0ED021A80EC020A7047D0ED010A90EDD0
:1033C000031A70EE810A90ED021A71EE201A80EE57
:1033D000A11AD0ED001A30EE612AB0EE610AF7EEC4
:1033E000001A01EE020A31EEC11A61EE200A80ECE9
:1033F000020A70471CB54FF44070FEF7BFFFFEF79E
:1034000049FFFFF76DFAFEF7ADFBFEF7A3FEFEF7EF
:10341000B1FCFFF7BBF8FEF73BFA01214020FEF7B5
:10342000C3FF0120FFF72EF80D48FFF7F9FA0DA0B2
:10343000FFF7F6FA1748FFF7F3FA17490120CDE92D
:1034400000014202002315A1184801F00FFF0128D6
:1034500002D04FF0FF301CBD01F0B8F9FEE70000CC
:1034600054590008EFBFBDEFBFBDEFBFBDEFBFBDFB
:103470004B455931207C204B455932EFBFBDEFBF42
:10348000BDEFBFBDEFBFBDEFBFBDD0B6CFA3EFBF98
:10349000BD0A000000590008280000204170705447
:1034A00061736B437265617465000000E51000088C
:1034B0002DE9F041184E0F460446F5683068001DAE
:1034C00000F056FE38B9306890F82C100120884082
:1034D000316981433161601C07D137B13168BDE882
:1034E000F0410E48091D00F087BE30682C44AC4204
:1034F0004460316805D2B06BBDE8F041091D00F0B1
:1035000063BE706B091D00F05FFEB06A844200D29A
:10351000B462BDE8F0810000680000202C050020A6
:103520002DE9F041054600F073FE2D4EB068401CB9
:10353000B06030682B4F10B1706930B32BE035604C
:10354000B068012827D1002404EB840007EB800039
:1035500000F02CFE641C202CF6D3234800F026FE3D
:103560002148143000F022FE1F48283000F01EFED3
:103570001D483C3000F01AFE1B48503000F016FE8B
:10358000194870631430B06305E03068E96AC06AB6
:10359000884200D83560706A0121401C7062E86A78
:1035A000326981401143316100EB800007EB8000FC
:1035B000291D00F021FE00F067FE706900280CD084
:1035C0003068E96AC06A884207D208494FF08050E3
:1035D0000860BFF34F8FBFF36F8FBDE8F08100002D
:1035E000680000205C020020DC04002004ED00E004
:1035F00010B500F00DFE0E4C2068A0B90D4800F08B
:10360000D5FD0C48143000F0D1FD0A48E0601430BC
:103610002061002210210A2001F00EFB206010B171
:1036200005A100F007FFBDE8104000F02DBE00002E
:10363000A400002040050020546D725100000000DD
:1036400070B5124E124D1CE001F00EF9306820B139
:10365000002401F0DBFFA4B901E00124F9E700F048
:10366000D7FDF068C468201D00F082FDA868401EE8
:10367000A8606868401E686000F006FE204600F002
:1036800049F868680028DFD170BD000018050020E7
:103690006800002030B4026C0B46002A0BD0C168D1
:1036A0001144C1604468A14201D30168C16030BCCB
:1036B0001846FCF7E3BD30BC70472DE9F041856B3F
:1036C000164604460027026CFAB17EB1E068FCF7AA
:1036D000D5FDE168206C091AE1602268914202D2AE
:1036E0006168081AE060022E0DD00EE0A068FCF7B9
:1036F000C5FD216CA0680844A0606168884204D3BD
:103700002068A06001E005B16D1E6D1CA563384600
:10371000BDE8F08110B50446006B00F0E7FD2046DF
:10372000BDE8104000F0E2BD10484FF410414207E0
:1037300006D0C01D0D4920F00700411AC1F5104107
:103740000B4A00230144C2E900030839103A21F072
:10375000070111604B600B600B1AC0E90013936006
:103760004FF000405360D0607047000068050020B3
:10377000C8000020074E4FF08054074DFFF760FF50
:1037800030680128FAD92C60BFF34F8FBFF36F8FD9
:10379000F4E700005C02002004ED00E02DE9F047B2
:1037A000DDE909840E4682466FF00301206B01EBD0
:1037B00082010844089D20F007079946780705D044
:1037C00040F22B3218A11FA0FFF72AF9002022187F
:1037D000315C82F83410315C11B1401C1028F6D3F2
:1037E000002684F84360202D00D31F25201DE562AC
:1037F00000F0E7FC04F1180000F0E3FC2461C5F1DF
:1038000020006462A061666484F848604A465146BC
:10381000384600F0B9FA2060B8F1000F01D0C8F8BE
:103820000040BDE8F08700002E2E5C2E2E5C467214
:10383000656552544F535C7372635C7461736B7350
:103840002E6300004572726F723A25732C25640D49
:103850000A00000030B5114900E011460A688242B2
:10386000FBD34B685C18844203D14068184448601D
:10387000084643681C18944209D1084C103C24683F
:10388000A24209D052681A4442600A681268026073
:10389000814200D0086030BD0460F9E7C800002014
:1038A00070B5002441600B4D0061914206D8D11AD9
:1038B0008269914206D2011D286907E09A4203D22B
:1038C000994201D3012403E0011DE86800F07CFC6B
:1038D000204670BDA400002010B5044600F098FCFE
:1038E000A06B20B1002400F0CFFC204610BD0124C5
:1038F000F9E70000F8B5054614480E46C068C068F0
:10390000C468201D00F034FCE069012817D1A069CB
:103910002B46411932462046FFF7C2FF78B10020FE
:103920000346014600902A46204601F05DFF30B96B
:1039300007494FF4027201F11C00FFF771F8616A48
:1039400001B02046BDE8F04008470000A400002078
:103950004457000870B586B02F4E53E001980028F8
:1039600006DADDE90301029A90470198002849DB55
:10397000039C606910B1201D00F0FAFB05A800F05F
:10398000A9F8054601980A283CD2DFE800F00505B1
:10399000053B273805053B270298A16903460144EA
:1039A0002A462046FFF77CFF00282BD0616A20467C
:1039B0008847E069012825D1002000900298A1697C
:1039C000002342181946204601F00EFFD0B940F2FC
:1039D000213212A118A0FFF723F813E00298A0618A
:1039E00028B94FF44E720DA113A0FFF719F8A06982
:1039F0002B4641191A462046FFF752FF02E02046A7
:103A000000F074FC00231A4601A9306801F04CF95B
:103A10000028A3D106B070BDA40000202E2E5C2E7D
:103A20002E5C4672656552544F535C7372635C74CE
:103A3000696D6572732E63004572726F723A2573F9
:103A40002C25640D0A000000F8B50D46064600F06E
:103A50000BFF684600F03EF80446009810B101F0F4
:103A6000D5FDF8BD1148ADB101690968D9B100258E
:103A7000311B2A46006800F0EFFC01F0C7FD00286A
:103A8000EFD10B494FF080500860BFF34F8FBFF369
:103A90006F8FF8BDA642EBD801F0B8FD2146304645
:103AA000FFF728FFF8BD0125E2E70000A400002091
:103AB00004ED00E00648416B096829B1416BC96813
:103AC000C9684968816270474FF0FF31FAE700002A
:103AD0006800002070B5054601F07AFC064E0446E9
:103AE000B068844203D200F009F8012000E0002011
:103AF00028602046B46070BDA4000020F8B5184EC0
:103B000026E0C068C4680568201D00F031FB616ACA
:103B100020468847E06901281AD1A0692844A842B4
:103B200006D924616060211DF06800F04DFB0FE0B4
:103B300000200346014600902A46204601F054FE2C
:103B400030B9084940F2923201F11C00FEF768FFDB
:103B5000F06801680029D4D13169C6E90310F8BDC5
:103B6000A40000204457000808484068401C05D0C5
:103B700040F20F1206A111A0FEF752FF502080F371
:103B80001188BFF34F8FBFF36F8FFEE7D000002087
:103B90002E2E5C2E2E5C4672656552544F535C701F
:103BA0006F72745C525644535C41524D5F434D34C6
:103BB000465C706F72742E63000000004572726F75
:103BC000723A25732C25640D0A000000034600207C
:103BD00012B1994302D070470B42FCD001207047CC
:103BE000084CE068016839B1002139B10020FFF7C5
:103BF0002BFFFFF7AFFEF4E70121F6E7C06800688E
:103C0000F5E70000A40000202DE9F041044600F093
:103C1000FFFA94F9455004F1240609E0606A48B1BE
:103C2000304601F053FC08B100F006FD6D1E6DB288
:103C3000002DF3DC4FF0FF3684F8456000F024FBE4
:103C400000F0E6FA94F9445004F1100709E0206905
:103C500048B1384601F03AFC08B100F0EDFC6D1EA9
:103C60006DB2002DF3DC84F84460BDE8F04100F053
:103C70000BBB00002DE9F0410546002600F0F4FDE5
:103C8000324F386808B9FFF74FFDF86805424FD149
:103C9000002D4DD0083568070BD005F00700C0F1A6
:103CA00008000544680704D0BF2229A132A0FEF70E
:103CB000B7FE002D3CD07868854239D823491031B1
:103CC0000846046801E0214604466068A84202D222
:103CD00020680028F7D13868B846844228D00E689A
:103CE0002068086060680836401B10280ED96719E4
:103CF000780704D0EC2216A11FA0FEF791FE6068A1
:103D0000401B786038466560FFF7A4FD6168D8F80D
:103D100004004246401AC8F80400D8F80830984217
:103D200000D29060D8F80C0001430020C4E90001E3
:103D300001F06CFC700705D04FF4967204A10EA040
:103D4000FEF76EFE3046BDE8F0810000B8000020AE
:103D50002E2E5C2E2E5C4672656552544F535C705D
:103D60006F72745C4D656D4D616E675C6865617006
:103D70005F342E63000000004572726F723A257343
:103D80002C25640D0A00000010B5031F4FF080744D
:103D90001C601B1F21F001011960191F044B0B60EF
:103DA00014390A60091F6FF0020244380A6010BD1E
:103DB000693B0008CCB0414C606A002833D0FEF764
:103DC00031F93FA0FEF72CFE46A0FEF729FE48A0E1
:103DD000FEF726FE56A0FEF723FE65A0FEF720FEA6
:103DE0006BA0FEF71DFE70A0FEF71AFE4FF0FF3825
:103DF00049AD0023424603A9606A00F055FF01283F
:103E0000F7D103A972A0FEF70BFE4AA843A90095BB
:103E1000CDE9011043AB46AA73A103A8FCF768FAE9
:103E2000052804D00DE07448FEF7FAFDFEE773A103
:103E300046A8FCF747FA20B972A143A8FCF742FA5A
:103E400048B143AB46AA71A103A80095FCF750FA0C
:103E5000032814D01DE0499886B24A983246C1B270
:103E60000F466DA0FEF7DCFD39463046FDF715F92B
:103E700018B173A0FEF7D4FDBBE775A0FAE779A1EE
:103E800046A8FCF71FFA20B978A143A8FCF71AFA54
:103E900020B103A977A0FEF7C3FDAAE7499886B22F
:103EA000314684A0FEF7BCFD3046FDF7D3F802464C
:103EB0000346314688A0FEF7B3FD9AE724000020B0
:103EC0003D3D3D20454550524F4D20436F6E74722D
:103ED0006F6C20436F6E736F6C65203D3D3D0D0A26
:103EE00000000000436F6D6D616E64733A0D0A004F
:103EF000202077726974652061646472203C61647B
:103F000064726573733E2064617461203C76616CF9
:103F100075653E202D3E205772697465206461747A
:103F20006120746F20454550524F4D0D0A0000002E
:103F30002020726561642061646472203C61646465
:103F4000726573733E202020202020202020202016
:103F500020202D3E205265616420646174612066DA
:103F6000726F6D20454550524F4D0D0A0000000004
:103F70004578616D706C653A20777269746520616F
:103F80006464722031206461746120350D0A000080
:103F90004578616D706C653A20726561642061647A
:103FA000647220310D0A00003D3D3D3D3D3D3D3DEB
:103FB0003D3D3D3D3D3D3D3D3D3D3D3D3D3D3D3D31
:103FC0003D3D3D3D3D3D3D3D3D3D0D0A0000000078
:103FD000526563656976656420436F6D6D616E64DB
:103FE0003A2025730D0A00002573202573202564CF
:103FF0002025732025640000BC580008777269747E
:1040000065000000646174610000000025732025D4
:104010007320256400000000457865637574696E3F
:10402000673A2057726974652030782530325820FD
:10403000746F20416464726573732025640D0A00F7
:104040005772697465204661696C6564210D0A00C8
:1040500057726974652053756363657373210D0A24
:104060000000000072656164000000006164647219
:1040700000000000556E7265636F676E697A656453
:1040800020636F6D6D616E643A2025732E20547924
:104090007065202768656C702720666F722061202C
:1040A0006C697374206F6620636F6D6D616E6473ED
:1040B0002E0D0A00457865637574696E673A205263
:1040C0006561642066726F6D20416464726573730C
:1040D0002025640D0A00000052656164205265735A
:1040E000756C743A20416464726573732025642092
:1040F0002D3E2044617461203078253032582028CC
:104100002564290D0A00000070B50C46064600F033
:104110007FF8154D2868406C80B92968012081F826
:1041200048005CB101212046FFF7C2F90F494FF06A
:1041300080500860BFF34F8FBFF36F8F00F0A4F87B
:1041400000F066F82868446C002034B116B1296884
:10415000486402E02A68611E5164296881F84800B9
:1041600000F092F8204670BD6800002004ED00E0E9
:10417000D0E9013201699A60D0E901235A604A68A6
:10418000824201D182684A60002202610868401EB2
:1041900008607047044908680A688069D26A09683B
:1041A000C2F120028A6170476800002000F1080116
:1041B0004FF0FF32C0E90112C160016100210160CE
:1041C000704700210161704730B50C68621C02D055
:1041D00000F1080202E0026904E01A4653681D6813
:1041E000A542FAD953684B6099608A6051600861B2
:1041F0000168491C016030BD42684A6093688B6069
:1042000093685960916008610168491C01607047BA
:10421000502080F31188BFF34F8FBFF36F8F094990
:104220004868401C486001280AD10748006810F01F
:10423000FF0F05D040F2B91204A10FA0FEF7F0BBAA
:1042400070470000D000002004ED00E02E2E5C2E10
:104250002E5C4672656552544F535C706F72745C8D
:10426000525644535C41524D5F434D34465C706F2F
:1042700072742E63000000004572726F723A2573EB
:104280002C25640D0A00000010B5084C606828B9A0
:104290004FF4E07206A111A0FEF7C2FB6068401E59
:1042A000606001D180F3118810BD0000D0000020B3
:1042B0002E2E5C2E2E5C4672656552544F535C70F8
:1042C0006F72745C525644535C41524D5F434D349F
:1042D000465C706F72742E63000000004572726F4E
:1042E000723A25732C25640D0A00000070B5002871
:1042F0002AD0164DA0F108046068E968084205D18B
:104300004FF4A07212A11CA0FEF78AFB206828B10E
:1043100040F241120EA118A0FEF782FB6068E96826
:10432000084211D02268002A0ED18843606000F054
:104330009BFA60686968084468602046FFF78AFA5B
:10434000BDE8704001F062B970BD0000B800002007
:104350002E2E5C2E2E5C4672656552544F535C7057
:104360006F72745C4D656D4D616E675C6865617000
:104370005F342E63000000004572726F723A25733D
:104380002C25640D0A00000006484FF47A7100687D
:10439000B0FBF1F14FF0E020491E416107210161BE
:1043A000704700000000002010B5FBF751FF104CD3
:1043B00010280CD300F1E02090F8F0032178884217
:1043C00005D24FF440720BA115A0FEF729FB184847
:1043D0000068A16800F4E060884207D9BDE8104099
:1043E0004FF4447203A10EA0FEF71ABB10BD0000EB
:1043F000D00000202E2E5C2E2E5C46726565525435
:104400004F535C706F72745C525644535C41524D12
:104410005F434D34465C706F72742E630000000081
:104420004572726F723A25732C25640D0A000000E4
:104430000CED00E010B5074B002253F832401CB1E0
:10444000521C0A2AF9D310BD43F8321003EBC20103
:10445000486010BD0C02002070B515460E4604469B
:10446000FFF7D6FE94F944100020491C01D184F8CE
:10447000440094F94510491C01D184F84500FFF728
:1044800003FFA06B28B92A46314604F1240000F04E
:1044900007F92046BDE87040FFF7B6BB10B5040031
:1044A00012D00E49096B29B140F2CF420CA113A0E2
:1044B000FEF7B6FA00F0D8F900212046FEF7F8FF23
:1044C00001F0A4F8002807D110494FF0805008608F
:1044D000BFF34F8FBFF36F8F10BD00006800002047
:1044E0002E2E5C2E2E5C4672656552544F535C73C3
:1044F00072635C7461736B732E6300004572726F3C
:10450000723A25732C25640D0A00000004ED00E0CA
:1045100070B50446FFF77CFE234D04B92C68201DBE
:10452000FFF726FE58B9E06A204A00EB800152F8F6
:10453000211021B901218140286988432861A06A9E
:1045400018B104F11800FFF713FE686A401C686296
:104550002868844207D1211D1548FFF74DFE686881
:10456000401C686007E0A868401EA8602046FFF76E
:10457000D1F8FFF79FFAFFF787FE6869002812D08D
:10458000286884420FD1286B28B140F2654209A106
:104590000FA0FEF745FA12494FF080500860BFF3B4
:1045A0004F8FBFF36F8F70BD680000205C0200204A
:1045B000180500202E2E5C2E2E5C46726565525426
:1045C0004F535C7372635C7461736B732E63000092
:1045D0004572726F723A25732C25640D0A00000033
:1045E00004ED00E02DED028B84B0DFED0F1A9FED9E
:1045F0000F1AF7EE000A9FED0E0A6846FEF7D6FE88
:104600009FED0C8A4FF0FF3421460120FFF77CFD1F
:104610000028F9D000EE100A6846F8EE400A80EE55
:10462000880AFEF7CAFEEFE7CDCCCC3D0AD7233C83
:104630003333D33F00007A4401490120C8617047F9
:104640006800002070B50D46040005D140F6063222
:1046500007A10EA0FEF7E4F91048016820461831C2
:10466000FFF7B2FD2846BDE870400121FEF720BFEC
:104670002E2E5C2E2E5C4672656552544F535C7331
:1046800072635C7461736B732E6300004572726FAA
:10469000723A25732C25640D0A0000006800002082
:1046A00070B514460E46050005D140F6313209A119
:1046B0000FA0FEF7B5F91248016828461831FFF738
:1046C0009BFD0CB14FF0FF3621463046BDE87040EF
:1046D000FEF7EEBE2E2E5C2E2E5C467265655254A1
:1046E0004F535C7372635C7461736B732E63000071
:1046F0004572726F723A25732C25640D0A00000012
:10470000680000202DE9F04117460E46050005D14E
:1047100040F617320DA114A0FEF782F9164C206B5B
:1047200028B940F61B3209A10FA0FEF779F92168DC
:1047300046F000408861216828461831FFF75CFD8B
:104740003846BDE8F0410121FEF7B2BE2E2E5C2EA8
:104750002E5C4672656552544F535C7372635C7491
:1047600061736B732E6300004572726F723A25732A
:104770002C25640D0A0000006800002010B504001C
:1047800005D140F6C13205A10BA0FEF749F90E484C
:10479000016A2160C068606010BD00002E2E5C2E92
:1047A0002E5C4672656552544F535C7372635C7441
:1047B00061736B732E6300004572726F723A2573DA
:1047C0002C25640D0A000000680000201CB5174865
:1047D0000024CDE900402346802215A1164800F0B0
:1047E00045FD012803D100F0C3FF01280AD0401C79
:1047F0001BD102B040F28472BDE810400FA116A098
:10480000FEF70EB9502080F31188BFF34F8FBFF32E
:104810006F8F06484FF0FF312C38816201214161D2
:10482000C460BDE81C4000F067B91CBD94000020C6
:1048300049444C4500000000753700082E2E5C2EC0
:104840002E5C4672656552544F535C7372635C74A0
:1048500061736B732E6300004572726F723A257339
:104860002C25640D0A0000000248016B491C0163FD
:10487000704700006800002070B5134D286B10B120
:104880000120E86170BD0020E86128690F4EB0FA90
:1048900080F0C0F11F0000EB800456F8240028B916
:1048A00040F6F6220AA111A0FEF7BAF806EB840042
:1048B00000F10802416849684160914201D14968AC
:1048C0004160C868286070BD680000205C0200205C
:1048D0002E2E5C2E2E5C4672656552544F535C73CF
:1048E00072635C7461736B732E6300004572726F48
:1048F000723A25732C25640D0A00000010B51820AB
:10490000FFF7B8F9040004D000202060201DFFF755
:104910004DFC204610BD00002DE9F04100258846E1
:10492000040005D140F21D221CA125A0FEF778F855
:104930005FEA186005D040F21E2218A120A0FEF701
:104940006FF8261D04F10C07FFF78EFF2168F06851
:1049500041EA0801216017E0D0E9001601F07F422A
:104960005301236821F07F4102D40B4203D10AE0B6
:1049700031EA030307D1D20100D50D43216841F08C
:10498000007100F0F3FD3046B842E5D12068A8433D
:10499000206000F03BFE2068BDE8F0812E2E5C2EEA
:1049A0002E5C4672656552544F535C7372635C654E
:1049B00076656E745F67726F7570732E63000000AA
:1049C0004572726F723A25732C25640D0A0000003F
:1049D0002DE9F047089F9A4691460D4604004FF096
:1049E000000605D140F24D1235A13EA0FEF718F8A1
:1049F000280E05D04FF4A77231A13AA0FEF710F8A7
:104A00002DB940F24F122EA136A0FEF709F800F0A2
:104A1000D1FC30B92FB14FF4A97229A131A0FDF713
:104A2000FFFFFFF721FFD4F8008052462946404699
:104A3000FFF7CCF840B100274646B9F1000F15D07A
:104A40002068A843206011E0AFB1B9F1000F01D098
:104A50004FF08076BAF1000F01D046F0806645EA4B
:104A600006013A46201DFFF74DFE002600F0CEFD60
:104A70001FB310B109E04646F8E71E494FF08050D9
:104A80000860BFF34F8FBFF36F8FFFF783FB0646BE
:104A9000800110D4FFF7BCFB2668524629463046F9
:104AA000FFF794F828B1B9F1000F02D02068A843AD
:104AB0002060FFF7E9FB26F07F463046BDE8F0872F
:104AC0002E2E5C2E2E5C4672656552544F535C73DD
:104AD00072635C6576656E745F67726F7570732E56
:104AE000630000004572726F723A25732C25640DC5
:104AF0000A00000004ED00E01CB5304C206830498D
:104B0000884205D140F259122EA139A0FDF788FF45
:104B100020682B49491E884205D14FF4AD7229A166
:104B200033A0FDF77DFF364C20780190FF202070E8
:104B300020788DF800009DF800009DF8001000F02E
:104B4000F000884205D040F273121EA128A0FDF7A4
:104B500067FF9DF800002B4A00F0500010700720FE
:104B6000906007E09068401E90609DF80000400053
:104B70008DF800009DF800000006F3D4107A0002C2
:104B800000F4E0609060019820700C4820300168CB
:104B900041F470010160016841F070410160FFF76C
:104BA000F3FB00205060FBF71BFB1748016841F046
:104BB00040410160FBF704FB00201CBD00ED00E05C
:104BC00071C20F412E2E5C2E2E5C467265655254CA
:104BD0004F535C706F72745C525644535C41524D3B
:104BE0005F434D34465C706F72742E6300000000AA
:104BF0004572726F723A25732C25640D0A0000000D
:104C000000E400E0D000002034EF00E010B55020B8
:104C100080F31188BFF34F8FBFF36F8F00F0DEFB7F
:104C200018B104494FF080500860002080F31188CB
:104C300010BD000004ED00E070B50E46050005D182
:104C40004FF4C4720DA114A0FDF7EAFE96B105FB66
:104C500006F04830FFF70EF8040009D004F14801CF
:104C600020464EB10160C0E90F56012100F0D4F892
:104C7000204670BD0020ECE70060F4E72E2E5C2E8D
:104C80002E5C4672656552544F535C7372635C715F
:104C9000756575652E6300004572726F723A2573F3
:104CA0002C25640D0A0000002DE9FF4F83B09B46C0
:104CB0008A4604004FF0000605D140F2DC424AA1CA
:104CC00050A0FDF7ADFEBAF1000F07D1206C28B15E
:104CD00040F2DD4244A14BA0FDF7A2FE00F06AFBCA
:104CE00038B9059828B14FF49C623FA145A0FDF763
:104CF00097FE4FF000094FF08057DFF81881FFF75B
:104D000087FAA56B1DB351462046E668FEF7C2FC44
:104D1000BBF1000F13D0E660606A50B104F12400CB
:104D200000F0D4FB28B1C8F80070BFF34F8FBFF379
:104D30006F8FFFF7A9FA012007B0BDE8F08F6D1E55
:104D4000A56320690028F4D004F11000E8E7059875
:104D500008B11EB106E0FFF797FA27E06846FFF7B3
:104D60000DFD0126FFF790FAFFF77EFDFFF750FAE1
:104D700094F94400401C01D184F8449094F9450012
:104D8000401C01D184F84590FFF77EFA05A96846DA
:104D900000F024FA002820460AD0FEF735FF00F084
:104DA00035FC2046FEF798FD0028A8D00020C3E778
:104DB000FEF792FD90B104F124000599FFF742FC43
:104DC0002046FEF721FF00F021FC002897D1C8F80B
:104DD0000070BFF34F8FBFF36F8F90E72046FEF751
:104DE00013FF00F013FC8AE72E2E5C2E2E5C467219
:104DF000656552544F535C7372635C71756575657C
:104E00002E6300004572726F723A25732C25640D73
:104E10000A00000004ED00E070B50D46040005D165
:104E200040F21B121CA123A0FDF7FAFDFFF7F0F9D9
:104E3000D4E90F20216802FB001161600021A16309
:104E40002168A1600A46D4E90F01401E00FB012140
:104E5000E16021464FF0FF3001F8440F487004F143
:104E600010004DB1FFF7A2F904F12400FFF79EF9FD
:104E7000FFF70AFA012070BD21690029F8D000F07F
:104E800025FB0028F4D00F494FF080500860BFF395
:104E90004F8FBFF36F8FEBE72E2E5C2E2E5C46728A
:104EA000656552544F535C7372635C7175657565CB
:104EB0002E6300004572726F723A25732C25640DC3
:104EC0000A00000004ED00E02DE9FF4F83B01F460B
:104ED0008B4604004FF0000605D140F2D9224DA1C7
:104EE00053A0FDF79DFDBBF1000F07D1206C28B149
:104EF00040F2DA2247A14EA0FDF792FD022F08D121
:104F0000E06B012805D040F2DB2242A148A0FDF76A
:104F100087FD00F04FFA38B9059828B140F2DE223B
:104F20003CA143A0FDF77CFD4FF0000A4FF08058F4
:104F3000DFF80C91FFF76CF9A06BE16B884205D3A9
:104F4000022F03D00598C8B1DEB11EE03A4659469B
:104F50002046FEF7B2FB616A19B104F1240000F0AB
:104F6000B5FA28B1C9F80080BFF34F8FBFF36F8F38
:104F7000FFF78AF9012007B0BDE8F08FFFF784F949
:104F800021E06846FFF7FAFB0126FFF77DF9FFF7FE
:104F90006BFCFFF73DF994F94400401C01D184F803
:104FA00044A094F94500401C01D184F845A0FFF7C6
:104FB0006BF905A9684600F011F930B12046FEF7FB
:104FC00023FE00F023FB0020D5E7FFF721F9A06BBB
:104FD000E16B884201D1012500E00025FFF754F97B
:104FE00095B104F110000599FFF72CFB2046FEF760
:104FF0000BFE00F00BFB00289CD1C9F80080BFF32A
:105000004F8FBFF36F8F95E72046FEF7FDFD00F051
:10501000FDFA8FE72E2E5C2E2E5C4672656552548B
:105020004F535C7372635C71756575652E63000028
:105030004572726F723A25732C25640D0A000000C8
:1050400004ED00E02DE9F0471F4690468946040034
:1050500005D140F29F3227A12DA0FDF7E1FCB9F167
:10506000000F07D1206C28B14FF4687221A128A04D
:10507000FDF7D6FC022F08D1E06B012805D040F2E5
:10508000A1321CA122A0FDF7CBFCFFF78DF9502027
:10509000EFF3118680F31188BFF34F8FBFF36F8F4B
:1050A000A06BE16B884206D3022F04D0002086F368
:1050B0001188BDE8F08794F945503A4649462046A4
:1050C000FEF7FBFA681C04D06D1C84F845500120E3
:1050D000EDE7606A0028FAD004F1240000F0F6F948
:1050E0000028F4D0B8F1000FF1D00121C8F8001069
:1050F000EDE700002E2E5C2E2E5C46726565525444
:105100004F535C7372635C71756575652E63000047
:105110004572726F723A25732C25640D0A000000E7
:1051200070B50E46040005D140F23C4220A127A0F4
:10513000FDF776FC206C28B14FF488621CA123A0F7
:10514000FDF76EFC206838B9606828B140F245422E
:1051500017A11EA0FDF764FCFFF726F95020EFF31E
:10516000118580F31188BFF34F8FBFF36F8FA16B51
:10517000E06B884218D994F94500491CA163411C91
:1051800004D0401C84F8450001200EE0606A00282D
:10519000FAD004F1240000F099F90028F4D0002E90
:1051A000F2D001203060EFE7002085F3118870BD58
:1051B0002E2E5C2E2E5C4672656552544F535C73E6
:1051C00072635C71756575652E6300004572726F60
:1051D000723A25732C25640D0A00000070B50D4647
:1051E000040005D140F6CB3214A11BA0FDF718FC3A
:1051F0002DB940F6CC3211A117A0FDF711FCFFF735
:1052000007F8194AD06829684B1C0FD02368126A26
:10521000934202D0626882420AD96268801A884248
:1052200006D2081A28602046FFF7A8FA002400E0FA
:105230000124FFF729F8204670BD00002E2E5C2EB9
:105240002E5C4672656552544F535C7372635C7496
:1052500061736B732E6300004572726F723A25732F
:105260002C25640D0A000000680000202DE9FF5F76
:105270008346DDE90E87994616468A469000FEF77A
:10528000F9FC05001AD04C20FEF7F4FC040012D003
:1052900025630021CDE90241CDE900874B46324626
:1052A00051465846FEF77AFA2046FEF739F90120B2
:1052B00004B0BDE8F09F2846FFF718F84FF0FF3024
:1052C000F6E700002DE9F0411F4690460D46040028
:1052D0004FF0010605D141F2FD0228A12EA0FDF7F5
:1052E0009FFBFEF795FF0FB1606C386094F84800A3
:1052F000022184F84810B8F1050F0ED2DFE808F05B
:105300000D03060C0A00616C294301E0616C491C25
:10531000616402E0022803D06564012802D028E01D
:10532000002626E0201DFEF723FF1F4DE06A012125
:105330002A698140114329611C4900EB800001EB7F
:105340008000211DFEF758FFA06A28B141F23512F6
:105350000AA111A0FDF764FBE06A2968C96A8842C6
:1053600007D913494FF080500860BFF34F8FBFF348
:105370006F8FFEF789FF3046BDE8F0812E2E5C2E40
:105380002E5C4672656552544F535C7372635C7455
:1053900061736B732E6300004572726F723A2573EE
:1053A0002C25640D0A000000680000205C0200202B
:1053B00004ED00E00548416919B1006B18B1002007
:1053C00070470120704702207047000068000020ED
:1053D0000148C06870470000680000202DE9F041D6
:1053E0002D4F0026386B40B1B869401CB861F86990
:1053F00000B101263046BDE8F081FD686D1CFD60FE
:1054000011D1786B006828B140F6D91223A12AA0E7
:10541000FDF706FB786BB96B7963B863386A401C9B
:105420003862FEF747FBB86ADFF89C80854209D3F3
:10543000786B006880B1786BC068C468606885422A
:105440000DD2B8623868C06A00EB800158F82100BC
:105450000128CCD90126CAE74FF0FF30F1E7201D23
:10546000FEF786FEA06A18B104F11800FEF780FE70
:10547000E06A01213A6981401143396100EB800102
:1054800008EB8100211DFEF7B7FEE06A3968C96AA2
:105490008842CDD30126CBE7680000202E2E5C2E5B
:1054A0002E5C4672656552544F535C7372635C7434
:1054B00061736B732E6300004572726F723A2573CD
:1054C0002C25640D0A0000005C0200202DE9F0414B
:1054D000C068C4682CB940F6613216A11CA0FDF763
:1054E0009FFA04F118000746FEF742FE1C4D286B98
:1054F000012660B139461B48FEF77EFEE06A296846
:10550000C96A884213D90120EE61BDE8F081201DEF
:10551000FEF72EFEE06A2A6906FA00F111432961BE
:10552000114900EB800001EB8000211DE4E7002021
:10553000EBE700002E2E5C2E2E5C46726565525401
:105540004F535C7372635C7461736B732E63000002
:105550004572726F723A25732C25640D0A000000A3
:1055600068000020040500205C02002070B51A4D80
:1055700006460C46286B28B940F6993217A11EA0A2
:10558000FDF74EFA44F000403060F4682CB940F664
:10559000A13212A118A0FDF743FA3046FEF7E8FD4C
:1055A000201DFEF7E5FDE06A01262A6906FA00F1F2
:1055B00011432961144900EB800001EB8000211D9B
:1055C000FEF71AFEE06A2968C96A884202D90120FA
:1055D000EE6170BD002070BD680000202E2E5C2E94
:1055E0002E5C4672656552544F535C7372635C74F3
:1055F00061736B732E6300004572726F723A25738C
:105600002C25640D0A0000005C0200202DE9F04703
:105610002B4D00242746286B28B94FF4FD6229A1A1
:105620002FA0FDF7FDF9FEF7F3FD286B401E286360
:10563000286BE8BBA8682E490126C8B3A1F52A79D2
:105640008846D8F80010E9B1D8F80C00C46804F115
:105650001800FEF78DFD201DFEF78AFDE06A2A691D
:1056600006FA00F11143296100EB800109EB81008A
:10567000211DFEF7C1FDE06A2968C96A8842E0D3AE
:10568000EE61DEE70CB1FEF715FAAC693CB1FFF74D
:10569000A5FE00B1EE61641EF9D10020A861E869A1
:1056A00030B11449012738070860BFF34F8F00E07D
:1056B00001E0BFF36F8FFEF7E7FD3846BDE8F087E6
:1056C000680000202E2E5C2E2E5C467265655254BA
:1056D0004F535C7372635C7461736B732E63000071
:1056E0004572726F723A25732C25640D0A00000012
:1056F0000405002004ED00E02DE9F0470746994637
:1057000016460D462820DDF820A0FEF7B3FA040067
:1057100014D0B8464F46D1462DB94FF4C67209A1F0
:105720000FA0FDF77DF9FDF763FF04F11801C4F840
:10573000008081E8E002201DFEF743FD2046BDE821
:10574000F08700002E2E5C2E2E5C4672656552544A
:105750004F535C7372635C74696D6572732E630082
:105760004572726F723A25732C25640D0A00000091
:105770001CB50024FDF73CFF0C48006868B10B49DC
:105780001F20091DCDE9000100234FF4807208A1FC
:105790000948FFF76BFD040005D140F2331207A161
:1057A0000DA0FDF73DF920461CBD0000A40000201F
:1057B000546D722053766300E13B00082E2E5C2E60
:1057C0002E5C4672656552544F535C7372635C7411
:1057D000696D6572732E63004572726F723A25733C
:1057E0002C25640D0A0000002DE9FF47DDF830A0EC
:1057F000994690460D4606004FF0000705D14FF43C
:10580000D37212A118A0FDF70BF91B4C206880B1D0
:10581000CDE900580296062D11DAFFF7CBFD0228DC
:105820004FF0000309D0002269462068FFF74CFBC7
:10583000074604B03846BDE8F0875246F4E7002337
:105840004A466946FFF7FEFBF2E700002E2E5C2E6B
:105850002E5C4672656552544F535C7372635C7480
:10586000696D6572732E63004572726F723A2573AB
:105870002C25640D0A000000A4000020DDDDDDDD24
:10588000DCBBBBDDDDDDDDDDDDDDDDDD98888888D1
:105890008888888877777777778888888555555678
:1058A00066666666666666666668888883333332CF
:1058B00022222222222222222228888D4552524F41
:1058C000523A205175657565206E6F7420696E6956
:1058D0007469616C697A656420696E207461736BA8
:1058E0005F70617273655F616E645F657865637533
:1058F00074655F636F6D6D616E64210D0A00000059
:10590000EFBFBDEFBFBDEFBFBDDAB7EFBFBDEFBFAC
:10591000BDEFBFBDEFBFBDEFBFBDEFBFBDDDB4EF9E
:10592000BFBDEFBFBDEFBFBDEFBFBDD0B6EFBFBDC9
:105930002CEFBFBDEFBFBDEFBFBDEFBFBDEFBFBD24
:10594000EFBFBDEFBFBDEFBFBDEFBFBDEFBFBD211F
:105950000A000000EFBFBDEFBFBDEFBFBDEFBFBD91
:10596000D2BBEFBFBDEFBFBD5BD2B0EFBFBDEFBFDE
:10597000BD5D2D53544D3332C8ABCFB5EFBFBDD055
:10598000BFEFBFBDEFBFBDEFBFBDEFBFBDEFBFBD41
:105990002D4672656552544F53EFBFBDD0B6CFB997
:1059A000EFBFBDEFBFBDEFBFBDCAB5EFBFBDE9A340
:1059B000A10A0000D459000800000020E000000007
:1059C000402A0008B45A0008E0000020889800002F
:1059D000502A0008007A030A0000000000000000BE
:1059E0000102030406070809000000000102030485
:1059F000010203040607080900000000000000007F
:105A00000000000000000000000000000000000096
:105A10000000000000000000000000000000000086
:105A20000000000001000000020000000000000073
:105A30000000000000000000000000000000000066
:105A40000000000000000000000000000000000056
:105A50000000000000000000000000000000000046
:105A60000000000000000000000000000000000036
:105A70000000000000000000000000000000000026
:105A80000000000000000000000000000000000016
:105A90000000000000000000000000000000000006
:105AA0000000000000000000AAAAAAAA000000004E
:045AB00000000000F2
:040000050800018965
:00000001FF
